{
  "_format": "hh-sol-artifact-1",
  "contractName": "CarRental",
  "sourceName": "contracts/CarRental.sol",
  "abi": [
    {
      "inputs": [],
      "stateMutability": "nonpayable",
      "type": "constructor"
    },
    {
      "anonymous": false,
      "inputs": [
        {
          "indexed": true,
          "internalType": "address",
          "name": "walletAddress",
          "type": "address"
        },
        {
          "indexed": false,
          "internalType": "uint256",
          "name": "amount",
          "type": "uint256"
        }
      ],
      "name": "BalanceWithdrawn",
      "type": "event"
    },
    {
      "anonymous": false,
      "inputs": [
        {
          "indexed": true,
          "internalType": "uint256",
          "name": "id",
          "type": "uint256"
        },
        {
          "indexed": false,
          "internalType": "string",
          "name": "carcarBrand",
          "type": "string"
        },
        {
          "indexed": false,
          "internalType": "string",
          "name": "carModel",
          "type": "string"
        },
        {
          "indexed": false,
          "internalType": "string",
          "name": "carImageUrl",
          "type": "string"
        },
        {
          "indexed": false,
          "internalType": "uint256",
          "name": "carRentPrice",
          "type": "uint256"
        },
        {
          "indexed": false,
          "internalType": "uint256",
          "name": "carSalePrice",
          "type": "uint256"
        }
      ],
      "name": "CarAdded",
      "type": "event"
    },
    {
      "anonymous": false,
      "inputs": [
        {
          "indexed": true,
          "internalType": "uint256",
          "name": "id",
          "type": "uint256"
        },
        {
          "indexed": false,
          "internalType": "string",
          "name": "carBrand",
          "type": "string"
        },
        {
          "indexed": false,
          "internalType": "string",
          "name": "carModel",
          "type": "string"
        },
        {
          "indexed": false,
          "internalType": "string",
          "name": "carImageUrl",
          "type": "string"
        },
        {
          "indexed": false,
          "internalType": "uint256",
          "name": "carRentPrice",
          "type": "uint256"
        },
        {
          "indexed": false,
          "internalType": "uint256",
          "name": "carSalePrice",
          "type": "uint256"
        }
      ],
      "name": "CarMetadataUpdated",
      "type": "event"
    },
    {
      "anonymous": false,
      "inputs": [
        {
          "indexed": true,
          "internalType": "uint256",
          "name": "id",
          "type": "uint256"
        },
        {
          "indexed": false,
          "internalType": "enum CarRental.Status",
          "name": "carStatus",
          "type": "uint8"
        }
      ],
      "name": "CarStatusUpdated",
      "type": "event"
    },
    {
      "anonymous": false,
      "inputs": [
        {
          "indexed": true,
          "internalType": "address",
          "name": "walletAddress",
          "type": "address"
        },
        {
          "indexed": true,
          "internalType": "uint256",
          "name": "carId",
          "type": "uint256"
        }
      ],
      "name": "CheckIn",
      "type": "event"
    },
    {
      "anonymous": false,
      "inputs": [
        {
          "indexed": true,
          "internalType": "address",
          "name": "walletAddress",
          "type": "address"
        },
        {
          "indexed": true,
          "internalType": "uint256",
          "name": "carId",
          "type": "uint256"
        }
      ],
      "name": "Checkout",
      "type": "event"
    },
    {
      "anonymous": false,
      "inputs": [
        {
          "indexed": true,
          "internalType": "address",
          "name": "walletAddress",
          "type": "address"
        },
        {
          "indexed": false,
          "internalType": "uint256",
          "name": "amount",
          "type": "uint256"
        }
      ],
      "name": "Deposit",
      "type": "event"
    },
    {
      "anonymous": false,
      "inputs": [
        {
          "indexed": true,
          "internalType": "address",
          "name": "walletAddress",
          "type": "address"
        },
        {
          "indexed": false,
          "internalType": "uint256",
          "name": "amount",
          "type": "uint256"
        }
      ],
      "name": "PaymentMade",
      "type": "event"
    },
    {
      "anonymous": false,
      "inputs": [
        {
          "indexed": true,
          "internalType": "address",
          "name": "walletAddress",
          "type": "address"
        },
        {
          "indexed": false,
          "internalType": "string",
          "name": "name",
          "type": "string"
        },
        {
          "indexed": false,
          "internalType": "string",
          "name": "surname",
          "type": "string"
        }
      ],
      "name": "UserAdded",
      "type": "event"
    },
    {
      "inputs": [
        {
          "internalType": "string",
          "name": "carBrand",
          "type": "string"
        },
        {
          "internalType": "string",
          "name": "carModel",
          "type": "string"
        },
        {
          "internalType": "string",
          "name": "carImageUrl",
          "type": "string"
        },
        {
          "internalType": "uint256",
          "name": "carRentPrice",
          "type": "uint256"
        },
        {
          "internalType": "uint256",
          "name": "carSalePrice",
          "type": "uint256"
        }
      ],
      "name": "addCar",
      "outputs": [],
      "stateMutability": "nonpayable",
      "type": "function"
    },
    {
      "inputs": [
        {
          "internalType": "string",
          "name": "name",
          "type": "string"
        },
        {
          "internalType": "string",
          "name": "surname",
          "type": "string"
        }
      ],
      "name": "addUser",
      "outputs": [],
      "stateMutability": "nonpayable",
      "type": "function"
    },
    {
      "inputs": [],
      "name": "checkIn",
      "outputs": [],
      "stateMutability": "nonpayable",
      "type": "function"
    },
    {
      "inputs": [
        {
          "internalType": "uint256",
          "name": "id",
          "type": "uint256"
        }
      ],
      "name": "checkOut",
      "outputs": [],
      "stateMutability": "nonpayable",
      "type": "function"
    },
    {
      "inputs": [],
      "name": "deposit",
      "outputs": [],
      "stateMutability": "payable",
      "type": "function"
    },
    {
      "inputs": [
        {
          "internalType": "uint256",
          "name": "id",
          "type": "uint256"
        }
      ],
      "name": "getCar",
      "outputs": [
        {
          "components": [
            {
              "internalType": "uint256",
              "name": "id",
              "type": "uint256"
            },
            {
              "internalType": "string",
              "name": "carBrand",
              "type": "string"
            },
            {
              "internalType": "string",
              "name": "carModel",
              "type": "string"
            },
            {
              "internalType": "string",
              "name": "carImageUrl",
              "type": "string"
            },
            {
              "internalType": "uint256",
              "name": "carRentPrice",
              "type": "uint256"
            },
            {
              "internalType": "uint256",
              "name": "carSalePrice",
              "type": "uint256"
            },
            {
              "internalType": "enum CarRental.Status",
              "name": "carStatus",
              "type": "uint8"
            }
          ],
          "internalType": "struct CarRental.Car",
          "name": "",
          "type": "tuple"
        }
      ],
      "stateMutability": "view",
      "type": "function"
    },
    {
      "inputs": [
        {
          "internalType": "enum CarRental.Status",
          "name": "_status",
          "type": "uint8"
        }
      ],
      "name": "getCarsByStatus",
      "outputs": [
        {
          "components": [
            {
              "internalType": "uint256",
              "name": "id",
              "type": "uint256"
            },
            {
              "internalType": "string",
              "name": "carBrand",
              "type": "string"
            },
            {
              "internalType": "string",
              "name": "carModel",
              "type": "string"
            },
            {
              "internalType": "string",
              "name": "carImageUrl",
              "type": "string"
            },
            {
              "internalType": "uint256",
              "name": "carRentPrice",
              "type": "uint256"
            },
            {
              "internalType": "uint256",
              "name": "carSalePrice",
              "type": "uint256"
            },
            {
              "internalType": "enum CarRental.Status",
              "name": "carStatus",
              "type": "uint8"
            }
          ],
          "internalType": "struct CarRental.Car[]",
          "name": "",
          "type": "tuple[]"
        }
      ],
      "stateMutability": "view",
      "type": "function"
    },
    {
      "inputs": [],
      "name": "getContractBalance",
      "outputs": [
        {
          "internalType": "uint256",
          "name": "",
          "type": "uint256"
        }
      ],
      "stateMutability": "view",
      "type": "function"
    },
    {
      "inputs": [],
      "name": "getCurrentCount",
      "outputs": [
        {
          "internalType": "uint256",
          "name": "",
          "type": "uint256"
        }
      ],
      "stateMutability": "view",
      "type": "function"
    },
    {
      "inputs": [],
      "name": "getOwner",
      "outputs": [
        {
          "internalType": "address",
          "name": "",
          "type": "address"
        }
      ],
      "stateMutability": "view",
      "type": "function"
    },
    {
      "inputs": [],
      "name": "getTimestamp",
      "outputs": [
        {
          "internalType": "uint256",
          "name": "",
          "type": "uint256"
        }
      ],
      "stateMutability": "view",
      "type": "function"
    },
    {
      "inputs": [],
      "name": "getTotalPayments",
      "outputs": [
        {
          "internalType": "uint256",
          "name": "",
          "type": "uint256"
        }
      ],
      "stateMutability": "view",
      "type": "function"
    },
    {
      "inputs": [
        {
          "internalType": "address",
          "name": "walletAddress",
          "type": "address"
        }
      ],
      "name": "getUser",
      "outputs": [
        {
          "components": [
            {
              "internalType": "address",
              "name": "walletAddress",
              "type": "address"
            },
            {
              "internalType": "string",
              "name": "name",
              "type": "string"
            },
            {
              "internalType": "string",
              "name": "surname",
              "type": "string"
            },
            {
              "internalType": "uint256",
              "name": "rentedCarId",
              "type": "uint256"
            },
            {
              "internalType": "uint256",
              "name": "balance",
              "type": "uint256"
            },
            {
              "internalType": "uint256",
              "name": "debt",
              "type": "uint256"
            },
            {
              "internalType": "uint256",
              "name": "startTime",
              "type": "uint256"
            }
          ],
          "internalType": "struct CarRental.User",
          "name": "",
          "type": "tuple"
        }
      ],
      "stateMutability": "view",
      "type": "function"
    },
    {
      "inputs": [],
      "name": "makePayment",
      "outputs": [],
      "stateMutability": "nonpayable",
      "type": "function"
    },
    {
      "inputs": [
        {
          "internalType": "address",
          "name": "_newOwner",
          "type": "address"
        }
      ],
      "name": "setOwner",
      "outputs": [],
      "stateMutability": "nonpayable",
      "type": "function"
    },
    {
      "inputs": [
        {
          "internalType": "uint256",
          "name": "id",
          "type": "uint256"
        },
        {
          "internalType": "string",
          "name": "carBrand",
          "type": "string"
        },
        {
          "internalType": "string",
          "name": "carModel",
          "type": "string"
        },
        {
          "internalType": "string",
          "name": "carImageUrl",
          "type": "string"
        },
        {
          "internalType": "uint256",
          "name": "carRentPrice",
          "type": "uint256"
        },
        {
          "internalType": "uint256",
          "name": "carSalePrice",
          "type": "uint256"
        }
      ],
      "name": "updateCarMetadata",
      "outputs": [],
      "stateMutability": "nonpayable",
      "type": "function"
    },
    {
      "inputs": [
        {
          "internalType": "uint256",
          "name": "id",
          "type": "uint256"
        },
        {
          "internalType": "enum CarRental.Status",
          "name": "carStatus",
          "type": "uint8"
        }
      ],
      "name": "updateCarStatus",
      "outputs": [],
      "stateMutability": "nonpayable",
      "type": "function"
    },
    {
      "inputs": [
        {
          "internalType": "uint256",
          "name": "amount",
          "type": "uint256"
        }
      ],
      "name": "withdrawBalance",
      "outputs": [],
      "stateMutability": "nonpayable",
      "type": "function"
    },
    {
      "inputs": [
        {
          "internalType": "uint256",
          "name": "amount",
          "type": "uint256"
        }
      ],
      "name": "withdrawOwnerBalance",
      "outputs": [],
      "stateMutability": "nonpayable",
      "type": "function"
    }
  ],
  "bytecode": "0x608060405234801561001057600080fd5b5060016000908155600280546001600160a01b031916331790556003556127768061003c6000396000f3fe6080604052600436106101445760003560e01c80636f77926b116100c0578063d0e30db011610074578063da76d5cd11610059578063da76d5cd14610338578063dd51babf14610358578063e1b4c4501461036d57600080fd5b8063d0e30db01461031b578063d8d797001461032357600080fd5b8063708f29a6116100a5578063708f29a6146102b1578063893d20e8146102c6578063ba38ccf6146102ee57600080fd5b80636f77926b1461026f5780636f9fb98a1461029c57600080fd5b80631bd2eeee116101175780633c69c657116100fc5780633c69c65714610202578063514a6ec7146102225780635e8be1901461024257600080fd5b80631bd2eeee146101c25780633790f4e5146101e257600080fd5b8063079eaf341461014957806313af40351461016b578063183ff0851461018b578063188ec356146101a0575b600080fd5b34801561015557600080fd5b50610169610164366004612175565b61038d565b005b34801561017757600080fd5b5061016961018636600461212d565b6105fc565b34801561019757600080fd5b50610169610690565b3480156101ac57600080fd5b50425b6040519081526020015b60405180910390f35b3480156101ce57600080fd5b506101696101dd366004612283565b6107f3565b3480156101ee57600080fd5b506101696101fd3660046121de565b6109f7565b34801561020e57600080fd5b5061016961021d366004612283565b610c6d565b34801561022e57600080fd5b5061016961023d36600461229b565b610def565b34801561024e57600080fd5b5061026261025d366004612283565b610f2c565b6040516101b991906125f1565b34801561027b57600080fd5b5061028f61028a36600461212d565b6111d5565b6040516101b99190612604565b3480156102a857600080fd5b506101af611402565b3480156102bd57600080fd5b506101af61146f565b3480156102d257600080fd5b506002546040516001600160a01b0390911681526020016101b9565b3480156102fa57600080fd5b5061030e61030936600461215b565b6114de565b6040516101b99190612506565b6101696118d6565b34801561032f57600080fd5b50610169611a06565b34801561034457600080fd5b50610169610353366004612283565b611b9b565b34801561036457600080fd5b506101af611d62565b34801561037957600080fd5b506101696103883660046122c6565b611d72565b336000908152600460205260409020546001600160a01b0316156103f85760405162461bcd60e51b815260206004820152601460248201527f5573657220616c7265616479206578697374732100000000000000000000000060448201526064015b60405180910390fd5b336000908152600460205260409020546001600160a01b03161561045e5760405162461bcd60e51b815260206004820152601460248201527f5573657220616c7265616479206578697374732100000000000000000000000060448201526064016103ef565b6040518060e00160405280336001600160a01b0316815260200185858080601f016020809104026020016040519081016040528093929190818152602001838380828437600092019190915250505090825250604080516020601f860181900481028201810190925284815291810191908590859081908401838280828437600092018290525093855250505060208083018290526040808401839052606084018390526080909301829052338252600481529190208251815473ffffffffffffffffffffffffffffffffffffffff19166001600160a01b03909116178155828201518051919261055792600185019290910190611f6a565b5060408201518051610573916002840191602090910190611f6a565b5060608201516003820155608082015160048083019190915560a0830151600583015560c090920151600690910155336000818152602092909252604091829020915190917f8eab1db142a914aff8b515eedb9177bd7effaef6d714c41e30bdf15206778607916105ee916001810191600290910190612575565b60405180910390a250505050565b6002546001600160a01b031633146106615760405162461bcd60e51b815260206004820152602260248201527f4f6e6c79206f776e65722063616e2063616c6c20746869732066756e6374696f6044820152616e2160f01b60648201526084016103ef565b6002805473ffffffffffffffffffffffffffffffffffffffff19166001600160a01b0392909216919091179055565b336000908152600460205260409020546001600160a01b03166106ec5760405162461bcd60e51b81526020600482015260146024820152735573657220646f6573206e6f742065786973742160601b60448201526064016103ef565b336000908152600460205260409020600301548061074c5760405162461bcd60e51b815260206004820181905260248201527f5573657220646f6573206e6f74206861766520612072656e746564206361722160448201526064016103ef565b3360009081526004602052604081206006015461076990426126bd565b6000838152600560205260409020600401549091506107888282611efb565b33600081815260046020908152604080832060058082019690965560038101849055600690810184905588845294909152808220909301805460ff19169055915185927fa864a8b988e604bb05d6ce75d53efabb5620c45b15380b7bd0c51dcfa71dda0391a3505050565b336000908152600460205260409020546001600160a01b031661084f5760405162461bcd60e51b81526020600482015260146024820152735573657220646f6573206e6f742065786973742160601b60448201526064016103ef565b60008181526005602052604081206006015460ff16600281111561088357634e487b7160e01b600052602160045260246000fd5b146108d05760405162461bcd60e51b815260206004820152601560248201527f436172206973206e6f7420617661696c61626c6521000000000000000000000060448201526064016103ef565b33600090815260046020526040902060030154156109305760405162461bcd60e51b815260206004820152601e60248201527f5573657220616c72656164792068617320612072656e7465642063617221000060448201526064016103ef565b33600090815260046020526040902060050154156109905760405162461bcd60e51b815260206004820152600e60248201527f557365722068617320646562742100000000000000000000000000000000000060448201526064016103ef565b3360008181526004602090815260408083204260068083019190915560039091018690558584526005909252808320909101805460ff19166001179055518392917f10190e7f174afbe5482194d509017e9df854671cd62fb4ef901fbd0080c1e6b691a350565b6002546001600160a01b03163314610a5c5760405162461bcd60e51b815260206004820152602260248201527f4f6e6c79206f776e65722063616e2063616c6c20746869732066756e6374696f6044820152616e2160f01b60648201526084016103ef565b610a6a600180546001019055565b6000610a7560015490565b90506040518060e001604052808281526020018a8a8080601f016020809104026020016040519081016040528093929190818152602001838380828437600092019190915250505090825250604080516020601f8b0181900481028201810190925289815291810191908a908a9081908401838280828437600092019190915250505090825250604080516020601f890181900481028201810190925287815291810191908890889081908401838280828437600092018290525093855250505060208201869052604082018590526060909101526000828152600560209081526040909120825181558282015180519192610b7992600185019290910190611f6a565b5060408201518051610b95916002840191602090910190611f6a565b5060608201518051610bb1916003840191602090910190611f6a565b506080820151600482015560a0820151600582015560c082015160068201805460ff19166001836002811115610bf757634e487b7160e01b600052602160045260246000fd5b02179055505050600081815260056020819052604091829020600481015491810154925184937f668248bd1e41529b1976896f9a89d0636937395fa2ef7b56baa15ce6b663147a93610c5a936001810193600282019360039092019291906125a3565b60405180910390a2505050505050505050565b6002546001600160a01b03163314610cd25760405162461bcd60e51b815260206004820152602260248201527f4f6e6c79206f776e65722063616e2063616c6c20746869732066756e6374696f6044820152616e2160f01b60648201526084016103ef565b806003541015610d4a5760405162461bcd60e51b815260206004820152602360248201527f4f776e657220646f6573206e6f74206861766520656e6f7567682062616c616e60448201527f636521000000000000000000000000000000000000000000000000000000000060648201526084016103ef565b604051600090339083908381818185875af1925050503d8060008114610d8c576040519150601f19603f3d011682016040523d82523d6000602084013e610d91565b606091505b5050905080610de25760405162461bcd60e51b815260206004820152601060248201527f5472616e73666572206661696c65642e0000000000000000000000000000000060448201526064016103ef565b5060038054919091039055565b6002546001600160a01b03163314610e545760405162461bcd60e51b815260206004820152602260248201527f4f6e6c79206f776e65722063616e2063616c6c20746869732066756e6374696f6044820152616e2160f01b60648201526084016103ef565b600082815260056020526040902054610eaf5760405162461bcd60e51b815260206004820152601360248201527f43617220646f6573206e6f74206578697374210000000000000000000000000060448201526064016103ef565b6000828152600560205260409020600601805482919060ff19166001836002811115610eeb57634e487b7160e01b600052602160045260246000fd5b0217905550817fbfabe8d9aa9c0940b5b85ea906a463b9c0e69242b0ad2c8f0fbf5240e2f4674d82604051610f209190612567565b60405180910390a25050565b610f34611fee565b600082815260056020526040902054610f8f5760405162461bcd60e51b815260206004820152601360248201527f43617220646f6573206e6f74206578697374210000000000000000000000000060448201526064016103ef565b600560008381526020019081526020016000206040518060e001604052908160008201548152602001600182018054610fc7906126d4565b80601f0160208091040260200160405190810160405280929190818152602001828054610ff3906126d4565b80156110405780601f1061101557610100808354040283529160200191611040565b820191906000526020600020905b81548152906001019060200180831161102357829003601f168201915b50505050508152602001600282018054611059906126d4565b80601f0160208091040260200160405190810160405280929190818152602001828054611085906126d4565b80156110d25780601f106110a7576101008083540402835291602001916110d2565b820191906000526020600020905b8154815290600101906020018083116110b557829003601f168201915b505050505081526020016003820180546110eb906126d4565b80601f0160208091040260200160405190810160405280929190818152602001828054611117906126d4565b80156111645780601f1061113957610100808354040283529160200191611164565b820191906000526020600020905b81548152906001019060200180831161114757829003601f168201915b50505091835250506004820154602082015260058201546040820152600682015460609091019060ff1660028111156111ad57634e487b7160e01b600052602160045260246000fd5b60028111156111cc57634e487b7160e01b600052602160045260246000fd5b90525092915050565b61121e6040518060e0016040528060006001600160a01b031681526020016060815260200160608152602001600081526020016000815260200160008152602001600081525090565b6001600160a01b038083166000908152600460205260409020541661127c5760405162461bcd60e51b81526020600482015260146024820152735573657220646f6573206e6f742065786973742160601b60448201526064016103ef565b6001600160a01b03808316600090815260046020908152604091829020825160e0810190935280549093168252600183018054929392918401916112bf906126d4565b80601f01602080910402602001604051908101604052809291908181526020018280546112eb906126d4565b80156113385780601f1061130d57610100808354040283529160200191611338565b820191906000526020600020905b81548152906001019060200180831161131b57829003601f168201915b50505050508152602001600282018054611351906126d4565b80601f016020809104026020016040519081016040528092919081815260200182805461137d906126d4565b80156113ca5780601f1061139f576101008083540402835291602001916113ca565b820191906000526020600020905b8154815290600101906020018083116113ad57829003601f168201915b505050505081526020016003820154815260200160048201548152602001600582015481526020016006820154815250509050919050565b6002546000906001600160a01b0316331461146a5760405162461bcd60e51b815260206004820152602260248201527f4f6e6c79206f776e65722063616e2063616c6c20746869732066756e6374696f6044820152616e2160f01b60648201526084016103ef565b504790565b6002546000906001600160a01b031633146114d75760405162461bcd60e51b815260206004820152602260248201527f4f6e6c79206f776e65722063616e2063616c6c20746869732066756e6374696f6044820152616e2160f01b60648201526084016103ef565b5060035490565b60606000806114ec60015490565b905060015b8181116115725784600281111561151857634e487b7160e01b600052602160045260246000fd5b60008281526005602052604090206006015460ff16600281111561154c57634e487b7160e01b600052602160045260246000fd5b1415611560578261155c8161270f565b9350505b8061156a8161270f565b9150506114f1565b5060008267ffffffffffffffff81111561159c57634e487b7160e01b600052604160045260246000fd5b6040519080825280602002602001820160405280156115d557816020015b6115c2611fee565b8152602001906001900390816115ba5790505b5060009350905060015b8281116118cd5785600281111561160657634e487b7160e01b600052602160045260246000fd5b60008281526005602052604090206006015460ff16600281111561163a57634e487b7160e01b600052602160045260246000fd5b14156118bb57600560008281526020019081526020016000206040518060e001604052908160008201548152602001600182018054611678906126d4565b80601f01602080910402602001604051908101604052809291908181526020018280546116a4906126d4565b80156116f15780601f106116c6576101008083540402835291602001916116f1565b820191906000526020600020905b8154815290600101906020018083116116d457829003601f168201915b5050505050815260200160028201805461170a906126d4565b80601f0160208091040260200160405190810160405280929190818152602001828054611736906126d4565b80156117835780601f1061175857610100808354040283529160200191611783565b820191906000526020600020905b81548152906001019060200180831161176657829003601f168201915b5050505050815260200160038201805461179c906126d4565b80601f01602080910402602001604051908101604052809291908181526020018280546117c8906126d4565b80156118155780601f106117ea57610100808354040283529160200191611815565b820191906000526020600020905b8154815290600101906020018083116117f857829003601f168201915b50505091835250506004820154602082015260058201546040820152600682015460609091019060ff16600281111561185e57634e487b7160e01b600052602160045260246000fd5b600281111561187d57634e487b7160e01b600052602160045260246000fd5b815250508285815181106118a157634e487b7160e01b600052603260045260246000fd5b602002602001018190525083806118b79061270f565b9450505b806118c58161270f565b9150506115df565b50949350505050565b336000908152600460205260409020546001600160a01b03166119325760405162461bcd60e51b81526020600482015260146024820152735573657220646f6573206e6f742065786973742160601b60448201526064016103ef565b600034116119a85760405162461bcd60e51b815260206004820152602660248201527f4465706f73697420616d6f756e74206d7573742062652067726561746572207460448201527f68616e203021000000000000000000000000000000000000000000000000000060648201526084016103ef565b33600090815260046020819052604082200180543492906119ca908490612686565b909155505060405134815233907fe1fffcc4923d04b559f4d29a8bfc6cda04eb5b0d3c460751c2402c5c5cc9109c9060200160405180910390a2565b336000908152600460205260409020546001600160a01b0316611a625760405162461bcd60e51b81526020600482015260146024820152735573657220646f6573206e6f742065786973742160601b60448201526064016103ef565b336000908152600460208190526040909120600581015491015481611ac95760405162461bcd60e51b815260206004820152601860248201527f5573657220646f6573206e6f742068617665206465627421000000000000000060448201526064016103ef565b81811015611b245760405162461bcd60e51b815260206004820152602260248201527f5573657220646f6573206e6f74206861766520656e6f7567682062616c616e63604482015261652160f01b60648201526084016103ef565b3360009081526004602081905260408220018054849003905560038054849290611b4f908490612686565b90915550503360008181526004602052604080822060050191909155517f3a2d0e41c506b136330c6e5e0295ccbf0966daece99bfe7c89020cc01dbfb8d690610f209085815260200190565b611ba3611f10565b336000908152600460205260409020546001600160a01b0316611bff5760405162461bcd60e51b81526020600482015260146024820152735573657220646f6573206e6f742065786973742160601b60448201526064016103ef565b336000908152600460208190526040909120015481811015611c6e5760405162461bcd60e51b815260206004820152602260248201527f5573657220646f6573206e6f74206861766520656e6f7567682062616c616e63604482015261652160f01b60648201526084016103ef565b336000818152600460208190526040808320909101805486900390555190919084908381818185875af1925050503d8060008114611cc8576040519150601f19603f3d011682016040523d82523d6000602084013e611ccd565b606091505b5050905080611d1e5760405162461bcd60e51b815260206004820152601060248201527f5472616e73666572206661696c65642e0000000000000000000000000000000060448201526064016103ef565b60405183815233907fddc398b321237a8d40ac914388309c2f52a08c134e4dc4ce61e32f57cb7d80f19060200160405180910390a25050611d5f6001600055565b50565b6000611d6d60015490565b905090565b6002546001600160a01b03163314611dd75760405162461bcd60e51b815260206004820152602260248201527f4f6e6c79206f776e65722063616e2063616c6c20746869732066756e6374696f6044820152616e2160f01b60648201526084016103ef565b600089815260056020526040902054611e325760405162461bcd60e51b815260206004820152601360248201527f43617220646f6573206e6f74206578697374210000000000000000000000000060448201526064016103ef565b60008981526005602052604090208715611e5657611e54600182018a8a612049565b505b8515611e6c57611e6a600282018888612049565b505b8315611e8257611e80600382018686612049565b505b8215611e9057600481018390555b8115611e9e57600581018290555b897fea3267b26182bbeddad58c9aa5159125ba7f8d85b8e463b4294eda49739371dc82600101836002018460030185600401548660050154604051611ee79594939291906125a3565b60405180910390a250505050505050505050565b6000611f07828461269e565b90505b92915050565b60026000541415611f635760405162461bcd60e51b815260206004820152601f60248201527f5265656e7472616e637947756172643a207265656e7472616e742063616c6c0060448201526064016103ef565b6002600055565b828054611f76906126d4565b90600052602060002090601f016020900481019282611f985760008555611fde565b82601f10611fb157805160ff1916838001178555611fde565b82800160010185558215611fde579182015b82811115611fde578251825591602001919060010190611fc3565b50611fea9291506120bd565b5090565b6040518060e001604052806000815260200160608152602001606081526020016060815260200160008152602001600081526020016000600281111561204457634e487b7160e01b600052602160045260246000fd5b905290565b828054612055906126d4565b90600052602060002090601f0160209004810192826120775760008555611fde565b82601f106120905782800160ff19823516178555611fde565b82800160010185558215611fde579182015b82811115611fde5782358255916020019190600101906120a2565b5b80821115611fea57600081556001016120be565b8035600381106120e157600080fd5b919050565b60008083601f8401126120f7578182fd5b50813567ffffffffffffffff81111561210e578182fd5b60208301915083602082850101111561212657600080fd5b9250929050565b60006020828403121561213e578081fd5b81356001600160a01b0381168114612154578182fd5b9392505050565b60006020828403121561216c578081fd5b611f07826120d2565b6000806000806040858703121561218a578283fd5b843567ffffffffffffffff808211156121a1578485fd5b6121ad888389016120e6565b909650945060208701359150808211156121c5578384fd5b506121d2878288016120e6565b95989497509550505050565b60008060008060008060008060a0898b0312156121f9578384fd5b883567ffffffffffffffff80821115612210578586fd5b61221c8c838d016120e6565b909a50985060208b0135915080821115612234578586fd5b6122408c838d016120e6565b909850965060408b0135915080821115612258578586fd5b506122658b828c016120e6565b999c989b509699959896976060870135966080013595509350505050565b600060208284031215612294578081fd5b5035919050565b600080604083850312156122ad578182fd5b823591506122bd602084016120d2565b90509250929050565b600080600080600080600080600060c08a8c0312156122e3578081fd5b8935985060208a013567ffffffffffffffff80821115612301578283fd5b61230d8d838e016120e6565b909a50985060408c0135915080821115612325578283fd5b6123318d838e016120e6565b909850965060608c0135915080821115612349578283fd5b506123568c828d016120e6565b9a9d999c50979a96999598959660808101359660a09091013595509350505050565b6003811061239657634e487b7160e01b600052602160045260246000fd5b9052565b60008151808452815b818110156123bf576020818501810151868301820152016123a3565b818111156123d05782602083870101525b50601f01601f19169290920160200192915050565b8054600090600181811c90808316806123ff57607f831692505b602080841082141561241f57634e487b7160e01b86526022600452602486fd5b8388526020880182801561243a576001811461244b57612476565b60ff19871682528282019750612476565b60008981526020902060005b8781101561247057815484820152908601908401612457565b83019850505b5050505050505092915050565b805182526000602082015160e060208501526124a260e085018261239a565b9050604083015184820360408601526124bb828261239a565b915050606083015184820360608601526124d5828261239a565b9150506080830151608085015260a083015160a085015260c08301516124fe60c0860182612378565b509392505050565b6000602080830181845280855180835260408601915060408160051b8701019250838701855b8281101561255a57603f19888603018452612548858351612483565b9450928501929085019060010161252c565b5092979650505050505050565b60208101611f0a8284612378565b60408152600061258860408301856123e5565b828103602084015261259a81856123e5565b95945050505050565b60a0815260006125b660a08301886123e5565b82810360208401526125c881886123e5565b905082810360408401526125dc81876123e5565b60608401959095525050608001529392505050565b602081526000611f076020830184612483565b602081526001600160a01b0382511660208201526000602083015160e0604084015261263461010084018261239a565b90506040840151601f19848303016060850152612651828261239a565b91505060608401516080840152608084015160a084015260a084015160c084015260c084015160e08401528091505092915050565b600082198211156126995761269961272a565b500190565b60008160001904831182151516156126b8576126b861272a565b500290565b6000828210156126cf576126cf61272a565b500390565b600181811c908216806126e857607f821691505b6020821081141561270957634e487b7160e01b600052602260045260246000fd5b50919050565b60006000198214156127235761272361272a565b5060010190565b634e487b7160e01b600052601160045260246000fdfea264697066735822122019ab97e780580ca74514deb9eb2733cdcab367f6daccaf92a1189eddb38847ad64736f6c63430008040033",
  "linkReferences": {},
  "deployedLinkReferences": {}
}